:020000020000FC
:0200000016C028
:10002C006BC1F89400E000938500009384000DE30D
:10003C000093890008E0009388000DE00093810094
:10004C0000E00093800002E000936F00259A2D9849
:10005C00239A2B98249A2C982098289A219A29989C
:10006C0022982A9A3A9A429A3B9A439A00E010E0D4
:10007C0020E040E054E060E070E080E090E0A0E040
:10008C00B0E0C0E0D0E0E0E07894C8D01A9B50E03B
:10009C00A3371CF4503009F4A3E713D0A13739F07F
:1000AC00AF3761F0A73789F3A4374CF4EECF94D077
:1000BC00523010F0942B40E0A0E0E7CF9BCF0BD157
:1000CC00E4CFB0E0C0E0589A599A5A9A5B9A539888
:1000DC00529851985098579A569A559A549A5F98A4
:1000EC005E985D985C9800000000489B09C0A3379F
:1000FC0084F5499B07C04A9B07C04B9B07C00895DA
:10010C00C06306C0C06204C0C06102C0C06000C051
:10011C005F9A5E9A5D9A5C9A57985698559854983F
:10012C00509A519A529A539A589859985A985B984F
:10013C00000000004F9B13C04E9B20C0A3374CF413
:10014C00C03331F04D9B29C0C03011F44C9B32C0F0
:10015C00C0E008954298AFE74F990895FBCFC033A4
:10016C00C9F3BF3F11F0B395FACF42984F9B56D0CD
:10017C004F9BFBCF429AC760A1E70895C03339F17A
:10018C00BF3F11F0B395FACF42984E9B47D04E9B90
:10019C00FBCF429AC460A1E70895BF3F11F0B3951D
:1001AC00FCCF42984D9B3AD04D9BFBCF429AC160FD
:1001BC00A1E70895BF3F11F0B395FCCF42984C9B3B
:1001CC002DD04C9BFBCF429AC060A1E70895A43779
:1001DC000CF40895A5E708958C2F807FCF70869539
:1001EC008695869586958C0F543039F0513079F080
:1001FC00523019F0533059F00895682F6650E0F7DB
:10020C00482F440F440F440F440F5A950895682FFC
:10021C006A5090F78F70482B5A95089510E070E053
:10022C006FE020E020E0203049F0213079F02230DE
:10023C0089F0233099F02430C9F0089560EF6923D8
:10024C00669566956695669570D114C06FE06923C6
:10025C006CD110C0EAE0F5E023950CC060EF64238C
:10026C00669566956695669560D104C06FE06423CB
:10027C005CD100C010E030E0822F8A953B30D9F081
:10028C003A3009F001C084E03395843019F010E065
:10029C00839502C0159180E008E000C00A9588940F
:1002AC00179538F02B982D982D9A2D98003031F306
:1002BC00F5CF2B9AF8CF2C982C9A2C9815917A3044
:1002CC0011F07395D7CF70E0253009F0ACCF5030DA
:1002DC0009F00895A8CFE0E0A53751F0E395E0349C
:1002EC00E9F7199AD03411F0D3950895A7E708953A
:1002FC0040E190E0A3E7089518991895A73729F0E5
:10030C00A43734F4A33729F01895A4E7D0E0189556
:10031C001895403049F04A956FE064236F3009F02E
:10032C001895407F49601895903051F09A9549E5A1
:10033C006FE069236F3009F01895907F99601895DC
:10034C00A4E7D0E0189508088000000040000818C9
:10035C004000000020000828200000001000084881
:10036C001000080808000808040008080200000033
:10037C000100F8F880008008400080082000800808
:10038C001000800808008008040000000100F80834
:10039C000200000001000000010000000100F8F85C
:1003AC008000080840000808200008081000080811
:1003BC0008000808040000000100F8080200000012
:1003CC00010000000100000001000888800008887E
:1003DC004000088820000888100008880800088859
:1003EC0004000000010008F80200000001000000F9
:1003FC0001000000010008F880000880400008801F
:10040C00200008801000088008000880040000000C
:10041C000100F8F80200F8F80100000001000000EB
:10042C000100F8F8800088804000888020008880D7
:10043C001000888008008880040000000100F8800B
:10044C00020000000100000001000000010008F89B
:10045C008000080840000808200008081000080860
:10046C000800080804000808020000000100000051
:10047C000100000001000000010088F8800088885D
:10048C0040008888200088881000888808008888A8
:10049C00040000000100F8F8020000000100000058
:1004AC00010000000100F8F880000888400008886E
:1004BC002000088810000888080008880400000044
:1004CC000100F8880200000001000000010000009B
:1004DC00010088F88000888840008888200088887F
:1004EC001000888808008888040000000100F88843
:1004FC0002000000010000000100000001000000EB
:10050C0040000000310018182100000011003C3C94
:10051C0010003C3C08001818040000000200000009
:10052C00010000000100000001006030B1F16130F9
:10053C0081F0623091F06330A1F06430B1F065303D
:10054C00C1F06630D1F06730E1F06830F1F069301D
:10055C0001F1E2E5F3E023950895EEE7F3E023954E
:10056C000895EAEAF3E023950895E6EDF3E0239588
:10057C000895E2E0F4E023950895EEE2F4E023958B
:10058C000895EAE5F4E023950895E6E8F4E0239570
:10059C000895E2EBF4E023950895EEEDF4E0239555
:0205AC000895B0
:00000001FF
